:020000040800F2
:1000000068140020A10C00089D0C0008D7320008DD
:100010009D0C00089D0C00089D0C000800000000CD
:100020000000000000000000000000009D0C00081F
:100030009D0C0008000000009D0C0008A51700089A
:10004000A10C0008A10C0008A10C0008A10C0008DC
:10005000A10C0008A10C0008A10C0008A10C0008CC
:10006000A10C0008A10C0008A10C0008A10C0008BC
:10007000A10C0008A10C0008A10C0008C12B00086D
:10008000A10C0008A10C0008A10C0008DD1100085B
:10009000E5110008A10C0008A10C0008A10C000843
:1000A000A10C0008A10C0008A10C0008A10C00087C
:1000B000FD100008F1260008A10C0008A10C0008A2
:1000C000A10C0008A10C0008A10C0008A10C00085C
:1000D000A10C0008A10C0008A10C0008A10C00084C
:1000E000A10C0008A10C0008ED110008A10C0008EB
:1000F000A10C0008F0B400230125032605FA03F241
:100100000C681440944239D107685A0006FA02F488
:10011000E44327400760076891F804C00CFA02FC2A
:100120004CEA070707600F79013FFFB2012F17D88C
:1001300087683C40846087684C7994403C43846085
:100140008788BFB29CB205FA04FC27EA0C078780B7
:10015000878891F806C00CFA04F43C43A4B284806A
:10016000C7689CB2640006FA04F427EA0404C46079
:10017000C468CF7907FA02F22243C2600133102B20
:10018000BCD1F0BC704700BF038A19420CBF0020ED
:1001900001207047018370474183704710B401F01C
:1001A00007039B00C90800EB8100046A0F219940F6
:1001B00024EA01010162016A9A40114301625DF87B
:1001C000044B704708B520B9064B1B6801221A8200
:1001D00008BD054B1B681B689847024B18680A301E
:1001E00008BD00BF601000205C10002008B520B9D9
:1001F000064B1B6801221A8208BD054B1B689B68D1
:100200009847024B18680C3008BD00BF60100020F2
:100210005C10002008B520B9224B1B6802221A820C
:1002200008BD0022204B1A801E4B1A68137813F069
:100230007F0311D1537A13F0200F02D002211A4A02
:10024000117013F0400F184B1A7814BF42F00102DE
:1002500022F001021A701AE0012B1ED0022B1ED1CF
:10026000537903F00F0013F0800F08D000F0FCFD6D
:1002700068B10D4B1A7842F001021A7007E000F0E5
:10028000FBFD20B1084B1A7842F001021A70074BAF
:100290001B681B699847044808BD034808BD002037
:1002A00008BD00BF60100020EC0200205C100020A0
:1002B000F8B5244B1C68238A227AB3B9042A3DD1AD
:1002C000214B1B78012B0BD10020014600F082FE50
:1002D00030221E4B1A8000221B4B1A70042629E084
:1002E00010221A4B1A80072624E0A58AAB428CBF45
:1002F000022604269D4228BF1D46A369284698472A
:100300000746002000F04AFE014638462A4603F020
:100310009DF90020294600F05DFE238A5B1B2382A5
:10032000638A1D4465823022084B1A804FF4405284
:10033000074B1A80034B1B681E72F8BDA58A042662
:10034000D8E700BF60100020280100203E100020E8
:100350003410002008B50C4B1B68DA780B4949783B
:1003600091420AD3997851B9998851B99A72084B38
:100370001B685B689847002008BD022008BD02206A
:1003800008BD022008BD00BF60100020A4000020AE
:100390005C10002010B5114C2368114A1268926954
:1003A0005879D978904723689A7A7AB180B91A79BE
:1003B00082B99B7883B90B4B1B68DB68984723682D
:1003C0005A79DA72DA781A73002010BD022010BD53
:1003D000022010BD022010BD022010BD60100020C0
:1003E000381000205C10002038B5344B1A681378A0
:1003F00013F07F0305D1537A23F0200353720020BA
:1004000038BD022B4DD15388002B4CD11379002BD2
:100410004BD1557925F0800415F0800F03D020468C
:1004200000F0F4FC02E0204600F0FAFC244B1B78BC
:100430009C423CD200283CD0204B1B689B7A002B6E
:1004400039D015F0800F0CD0E4B2204600F00CFD3E
:1004500008B3204600F062FD2046302100F06CFC1D
:1004600019E0E5B2284600F007FDA0B15CB92846C6
:10047000144B93F82C1000F0D1FD28464FF4405156
:1004800000F078FC07E0284600F03AFD28464FF4DB
:10049000405100F06FFC0C4B1B685B6998470020D3
:1004A00038BD022038BD022038BD022038BD0220F0
:1004B00038BD022038BD022038BD00BF60100020CA
:1004C000A4000020200000205C10002038B51A4B4A
:1004D0001B685C7924F0800514F0800F03D0284657
:1004E00000F094FC02E0284600F09AFC134B1B78C5
:1004F0009D4219D2104B1B685A88BAB9C0B19B7A79
:10050000C3B114F0800F04D02846102100F014FC71
:1005100004E028464FF4805100F02CFC084B1B6887
:100520009B699847002038BD022038BD022038BDA5
:10053000022038BD022038BD60100020A400002039
:100540005C10002008B5064B1B685A7A42F0200266
:100550005A72044B1B68DB699847002008BD00BF36
:10056000601000205C100020054B1B685A8A18B9E7
:1005700089888A1A1A82704708681044704700BF39
:100580006010002008B500200A4B93F82C1000F0F2
:1005900045FD094B1B68187A082806D14FF4805294
:1005A000064B1A801022064B1A80092814BF00201F
:1005B000012008BD20000020601000203410002021
:1005C0003E10002070B582B0002000F0F5FC984B82
:1005D0001B681A7A092A17D0440004F1804404F5F4
:1005E000C04422781A70924D2B6862785A702E6837
:1005F000A08800F07BFD70802E68208900F076FDD9
:10060000B080A2892B68DA80894B1B6801221A729C
:10061000DA88002A63D15C781A7812F07F022BD135
:10062000092C02D1FFF796FE38E0052C0CD193F986
:100630000320002A44DB9A78002A43D19A88002AB2
:1006400042D19B7A9BB341E0032C07D1DA78012A8F
:1006500025D19B881BBBFFF775FF1FE0012C1ED126
:10066000DA78012A1BD19A88CAB95B7A13F0200F75
:1006700015D0FFF7B9FE11E0012A04D10B2C0ED1E1
:10068000FFF788FE0AE0022A09D1012C02D1FFF708
:10069000ABFE03E0032C02D1FFF718FF38B1654B26
:1006A0001B685B6920469847032811D090B9002049
:1006B000014600F08FFC30225F4B1A8006220AE0D0
:1006C000082208E0082206E0082204E0082202E0EE
:1006D000092200E00822564B1B681A72DEE05A78A5
:1006E000062A17D11A7812F07F0F40F082809B788B
:1006F000012B03D14F4B1B68DA696CE0022B03D14D
:100700004C4B1B681A6A66E0032B72D1494B1B687D
:100710005A6A60E0002A3CD15A88002A69D15A6896
:1007200022F47F42B2F5003F63D11A7812F07F02C3
:1007300004D19B88002B00F0B4805AE0012A0ED12E
:100740003C4A12689269587900219047002850D19C
:10075000374B1B689B7A002B40F0A58049E0022AAA
:1007600047D15C7904F00F0514F0800F03D02846C0
:1007700000F04CFB02E0284600F052FB2F4B1B78A8
:10078000AB4236D914F0700F33D1002840F08D8081
:100790002FE0082A05D11B7813F07F0F00F0878027
:1007A00027E00A2A25D11A7802F07F02012A20D1F7
:1007B0009A7AF2B15A88E2B95A6822F47F42B2F5C5
:1007C000803F16D11B4A12689269587900219047E0
:1007D00000286ED00DE062B1154C236800205882CD
:1007E0009A61904723681A8A4FF6FF718A421AD19C
:1007F00014E0104B1B680E4A12681B69507898472A
:10080000032804D10A4B1B6809221A7246E0084BE0
:100810001B681A8A4FF6FF718A4202D109221A72A6
:100820003CE0022800D05AB908221A7236E000BF14
:1008300060100020381000203E100020A40000208E
:1008400093F90010002923DAD98801910198824296
:1008500002D9019A1A8213E0914211D91749096805
:1008600091F82C10914203D90021154A117007E02C
:1008700092FBF1F001FB102212B90121104A117014
:100880000E4A126892F82C209A82FFF711FD05E0BB
:1008900003221A724FF440520A4B1A80FFF772FE7D
:1008A00009E0094A98E7084A96E7074A94E7074AA1
:1008B00092E7074A90E702B070BD00BF38100020F1
:1008C000280100203410002015020008C50100088E
:1008D000ED01000870B5334B1C68237A022B52D00F
:1008E000042B52D0032B01D0052B44D1228AA369BB
:1008F000ABB1A2B1A58A954228BF154628469847B4
:100900000646238A5B1B2382638A2B446382002072
:1009100000F052FB014630462A4602F0B1FE238A1F
:10092000002B3BD04FF440521F4B1A800020014651
:1009300000F050FB30221D4B1A80238AA28A9A4273
:1009400004D8184B1B6803221A7210E023B1154B10
:100950001B6805221A720AE0124B1B6806221A72E3
:100960000020014600F036FB3022104B1A800D4B60
:100970001B681A7A0CE0072B09D10D4B1B68DB684A
:100980009847082204E0082202E0082200E008223A
:10099000044B1B681A72FFF7F5FD70BDA38A002B8C
:1009A000DAD1CEE760100020341000203E10002085
:1009B0003810002070B50646074B1D783DB1002465
:1009C000E1B2084600F0B8FA0134A542F8D846F082
:1009D0008006024B1E6070BDA40000204C5C0040ED
:1009E00008B5154B1A68137A022B01D0042B05D1D8
:1009F000FFF75EFC104B1B681A7A16E0062B13D12A
:100A00005378052B0AD1137813F07F0F06D1D078D5
:100A1000FFF7D0FF094B1B681B6A9847084B1B6800
:100A20009B689847082200E00822034B1B681A7253
:100A3000FFF7A8FD08BD00BF601000205C1000207B
:100A400038100020704700BF014B1860704700BF8E
:100A500020000E4282B000230193034B0344019314
:100A6000019B196002B07047A0000E42074B1A6844
:100A700042F004021A601A6842F002021A60044B43
:100A80001A6942F004021A6130BF704700700040DA
:100A900000ED00E0024620B1002300BF0133934285
:100AA000FBD1704730B583B003238DF805300124A6
:100AB0008DF804408DF8064002A94FF4406341F8D8
:100AC000083D084D28466946FFF714FB4FF4806344
:100AD0002B834FF400632B83204600F059FE03B0B4
:100AE00030BD00BF0004024070B51E4B9B8A03F06E
:100AF00010039BB213B901221B4B1A700A2000F09D
:100B000047FE1A4C4FF4006323831520FFF7C2FF02
:100B10004FF4806323831520FFF7BCFF238A03F47F
:100B200000639BB283B94FF480652E46668315201F
:100B3000FFF7B0FF25831520FFF7ACFF238A03F4EE
:100B400000639BB2002BF1D0084C4FF40063638329
:100B50001520FFF79FFF4FF4806363831520FFF795
:100B600099FF70BD000802402901002000040240E6
:100B70002DE9F84305464FF00808174C4FF400697B
:100B8000152715F0800F14BFA4F81890A4F81A9038
:100B90003846FFF77FFF4FF4806626833846FFF71D
:100BA00079FF66836D00EDB208F1FF3313F0FF08A3
:100BB000E7D11520FFF76EFF074C26834FF4006541
:100BC00025831520FFF766FF208A668365836840CA
:100BD000C0F3C020BDE8F8830004024038B50C4CD7
:100BE0004FF4006565831520FFF754FF4FF48063D1
:100BF00023831520FFF74EFF25831520FFF74AFFBB
:100C0000044B1B7813B10022024B1A7038BD00BF91
:100C1000000402402901002030B40A4B1A6840F653
:100C2000FE75854022EA05054C680A6814438A6807
:100C30002243C9680A4302FA00F02843186030BC16
:100C4000704700BF0074004039B1084B1A68012199
:100C500001FA00F0104318607047044B1A68012134
:100C600001FA00F022EA00001860704700740040AA
:100C700041B1094B1A684FF4805101FA00F010435A
:100C800018607047044B1A684FF4805101FA00F065
:100C900022EA00001860704700740040FEE700BFC1
:100CA00010B5134B134A9A420DD2131D124CE41A7D
:100CB00024F0030404340023104610495A581A50F3
:100CC0000433A342FAD10E4B0E4A9A420BD2131FA1
:100CD0000D49C91A21F003011A1D1144002243F8DD
:100CE000042F8B42FBD100F03DFC00F077FD10BDDE
:100CF00028010020000000202B0100206C49000882
:100D0000681000202801002063100020800000F1FE
:100D1000804000F5B840006880B27047800000F164
:100D2000804000F5B840036823F4EC4323F07003DF
:100D300019438BB203607047800000F1804000F5DA
:100D4000B840036823F4E04323F040039BB201F072
:100D5000100292B20AB183F0100301F0200189B2AF
:100D600009B183F0200343F4004343F080030360A0
:100D7000704700BF800000F1804000F5B840036874
:100D800023F4804323F070039BB201F4805292B2AB
:100D90000AB183F4805301F4005189B209B183F49C
:100DA000005343F4004343F080030360704700BFE7
:100DB00010B4800000F1804000F5B840036823F4CF
:100DC000804323F040039BB201F48054A4B20CB1E1
:100DD00083F4805301F4005189B209B183F40053C4
:100DE00002F0100189B209B183F0100302F0200271
:100DF00092B20AB183F0200343F4004343F080032E
:100E00009BB203605DF8044B704700BF800000F1A7
:100E1000804000F5B840006800F03000704700BF27
:100E2000800000F1804000F5B840006800F44050B8
:100E3000704700BF08B54FF44051FFF79BFF08BD56
:100E4000800000F1804000F5B840036823F4F87397
:100E50001B051B0D43F4004343F080030360704700
:100E600008B5FFF7EDFF08BD08B5FFF7CFFF102865
:100E700014BF0020012008BD08B5FFF7D1FFB0F571
:100E8000805F14BF0020012008BD00BF800000F17A
:100E9000804000F5B840036823F070031B051B0D6C
:100EA00003607047800000F1804000F5B84003689F
:100EB00023F4E14323F070039BB20360704700BF4B
:100EC000800000F1804000F5B840036823F0F00393
:100ED0001B051B0D43F4404343F080030360704740
:100EE000800000F1804000F5B840036823F0F00373
:100EF0001B051B0D43F4004343F0C0030360704720
:100F000008B5830003F1804303F5B8431B6803F47D
:100F100080439BB20BB1FFF7D3FF08BD08B5830038
:100F200003F1804303F5B8431B6803F040039BB211
:100F30000BB1FFF7D5FF08BD800000F1804000F540
:100F4000B840036841F4004141F0800123F0F00310
:100F50001B051B0D19430160704700BF064B1B6842
:100F6000490849009BB203EBC00000F1005000F5B6
:100F70004050400001607047505C0040054B1B68CA
:100F8000490849009BB203EBC000034B03445B00DC
:100F900019607047505C004004300020054B1B680E
:100FA0009BB203EBC00000F1005000F54050400040
:100FB00000887047505C0040044B1B689BB203EBF9
:100FC000C000034B03445B0018887047505C00402E
:100FD00004300020044B1B689BB203EBC000034BA2
:100FE00003445B0019607047505C004002300020F1
:100FF0003E290BD94B0911F01F0F04BF03F1FF333A
:101000009BB29B0243F40043036070474B0811F00E
:10101000010F18BF01339B020360704708B5054BF1
:101020001B689BB203EBC000034B03445800FFF75F
:10103000DFFF08BD505C00400630002038B5054693
:101040001446FFF78BFF28462146FFF797FF38BD70
:1010500008B50C4B1B68C000012908D19BB218448D
:101060000949014448001146FFF7C2FF08BD0229A3
:1010700007D1044B1B689BB21844034B03445B002D
:101080001A6008BD505C00400230002008B50129FC
:1010900003D11146FFF7C2FF08BD022908D1054B55
:1010A0001B689BB203EBC000034B03445B001A6058
:1010B00008BD00BF505C00400630002070B50646F9
:1010C0000D461446FFF7C4FF304629462246FFF777
:1010D000DDFF70BD08B5012902D1FFF701FF08BD92
:1010E000022901D1FFF7ECFE08BD00BF030A43EA65
:1010F000002080B2704700BF704700BF70B54FF04E
:101100008040012102F024FC00284CD04FF08040A8
:10111000012102F029FC244A147863001A440021BA
:101120009180224A52F82410086813449B8D5D0078
:101130000322AA40D243104008600E68012000FA42
:1011400005F535430D60984085B20D830D682A4042
:101150000A600A8A92B242FA03F313F0010F18D020
:10116000114B03EB44039B88B3F5966F11D2013307
:101170009BB20A8A92B2104204D10B4A02EB44029B
:10118000938006E0B3F5966FF1D1074A02EB440273
:1011900093800134E4B20A2C02D8034B1C7070BD5A
:1011A0000022014B1A7070BD2C010020A0470008DE
:1011B00070B4164682B10C4600231A46050F092D5D
:1011C00094BF3035373501F8135000016270013398
:1011D0000234DDB2AE42F1D870BC704708B502F0FF
:1011E000F9F908BD08B502F019FD08BD4FF48022D9
:1011F000014B5A61704700BF0004014010B582B036
:101200000120014600F0A0F84FF40000012100F099
:10121000A9F8164B4FF480225A611A6842F48022D2
:101220001A605A68D20CD2045A609A6842F480223A
:101230009A60DA68D20CD204DA6014238DF8043094
:1012400002238DF8053000238DF8063001248DF837
:10125000074001A802F09EF82A238DF804308DF88B
:10126000054001A802F096F802B010BD000401404C
:1012700008B5054B9B7A002B0CBF01220522034BBE
:101280001A6000F06FF908BD4010002050010020E6
:1012900038B50A4B1B680A4A146804321268D01821
:1012A0000AD0084D29460822FFF782FF204605F1A3
:1012B00010010422FFF77CFF38BD00BF5000F81F6B
:1012C0005400F81F02000020014B1860704700BF57
:1012D00000004742024B00221A701870704700BF8E
:1012E0003538024000F44032B2F5403F07D1084B98
:1012F000196821F0C04100F0C04008431860044B59
:10130000596B21F440315963596B0A435A63704752
:1013100000380240014B1860704700BFD8064742B2
:10132000014B1860704700BFDC06474221B1054BF6
:10133000DA691043D8617047024BDA6922EA00008B
:10134000D86170470038024021B1054B1A6A10433A
:1013500018627047024B1A6A22EA0000186270474E
:101360000038024021B1054B5A6A10435862704759
:10137000024B5A6A22EA0000586270470038024065
:1013800021B1054B5A69104358617047024B5A69A5
:1013900022EA000058617047003802404309012BDF
:1013A000054B0CBF1B685B6B00F01F0023FA00F0BD
:1013B00000F00100704700BF00380240034B9B7AE9
:1013C00013B10522024B1A60704700BF4010002085
:1013D000500100200422014B1A6070475001002088
:1013E000704700BF704700BF02207047012904D832
:1013F000022834BF0020022070470220704700BF3F
:1014000020B9034B1B68DA881A827047014870477D
:10141000601000204801002010B500F07F00012876
:101420000AD1064B1B68064A9A6100245C8220465A
:10143000FFF7E6FF204610BD022010BD601000201F
:101440000114000810B5FFF723FF054B1B680024AB
:101450009C7200F019F902F023F9024B1C6010BDD8
:10146000601000205001002010B5284B1B6800249C
:101470009C72274AD2795A72264B1C6020464FF440
:101480000071FFF74BFC20462021FFF755FC20465A
:101490001021FFF773FD20461F4B93F82C10FFF728
:1014A000BDFD20465021FFF759FD2046FFF7D8FC2F
:1014B0002046FFF7BFFC01204FF48061FFF72EFCB0
:1014C00001209021C022FFF7B9FD01200146C02272
:1014D000FFF7F4FD0120FFF713FD0120FFF71EFDCC
:1014E0000120FFF7FDFC01204FF44051FFF742FCC3
:1014F00001202146FFF720FC2046FFF79BFC2046F9
:10150000FFF758FA0122054B1A6010BD6010002049
:1015100034450008505C00402000002050010020AD
:1015200008B50249FFF720F808BD00BF50000020B1
:1015300008B50249FFF718F808BD00BF58000020A1
:1015400008B5064B1B68DB78042B05D8044901EB72
:10155000C301FFF709F808BD002008BD6010002096
:101560006000002082B0434B1A6842F480721A6017
:101570009968414A0A409A601A6822F0885222F01B
:1015800001121A601A6822F480221A609A6822F402
:101590007D029A600022DA60009201921A6842F499
:1015A00080321A601A46136803F400330193009BDB
:1015B00001330093019B1BB9009BB3F5A06FF2D1DF
:1015C0002C4B1B6813F4003F14BF0123002301932D
:1015D000019B012B44D1294B1A6842F004021A6086
:1015E0001A6842F002021A601A6842F001021A6098
:1015F000A3F580635A6A42F080525A624FF4006247
:10160000A3F5E4331A601A46536813F0100FFBD1A8
:10161000184B9A689A609A689A609A689A609A6871
:1016200022F47D029A609A6842F409029A601A686C
:1016300042F080721A601A46136813F0007FFBD0E4
:101640000C4B9A6822F003029A609A6842F00302F7
:101650009A601A46936803F00C030C2BFAD102E04F
:101660000122074B1A704FF00062064B9A6002B0DD
:10167000704700BF003802400CC0FF88003C0240A9
:101680001A02002000ED00E008B5012001F032FD53
:10169000054B01221A6000201860044A10604FF4C4
:1016A000E0521A6008BD00BF405C0040445C00404E
:1016B00010B5054C236823F004032360FFF7D8FD21
:1016C0004FF43643236010BD405C004008B5072846
:1016D0001CBF2C4B18702B4B1B78DBB2052B4DD845
:1016E000DFE803F00310191F2C37274B1B682BB9B9
:1016F000FFF7DEFF0622234B1A7008BD0522214B9F
:101700001A7008BDFFF7D4FF04221E4B1A70012285
:101710001D4B1A6008BD1B4B02225A7003221A701F
:1017200008BD184B5A78013AD2B25A705B7813F060
:10173000FF0F26D10422134B1A7008BD134B1A68F1
:1017400042F010021A600F4B05221A700A225A70DA
:1017500008BD0C4B5A78013AD2B25A705B7813F03C
:10176000FF0F0ED1094B1A6822F010021A600622F0
:10177000044B1A700022044B1A6008BD0622014B6C
:101780001A7008BDF00200204C010020405C0040AF
:10179000034B18601A461368002BFCD1704700BF3A
:1017A0005401002010B50C4B1B681BB10A4B1A6882
:1017B000013A1A6001F06EF8074B9B8801339BB227
:1017C000312B02D8044A938010BD034C0023A38020
:1017D00000F0BAFFA06010BD540100202DE9F04FC9
:1017E00091B000F095FD02F075FA01F081FDFFF770
:1017F00083FC02F083F900F08FFE4FF4FA4000F012
:101800002BFE00200121032201F018F940F2DC50E8
:10181000FFF7BEFF00200121032201F00FF9012094
:101820000146032201F00AF902200121032201F0FE
:1018300005F9AA4B9B6813F0010F08D00A25A74CA5
:101840002846FFF7A5FFA36813F0010FF8D1012088
:101850000021032201F0F2F802200021032201F00E
:10186000EDF84FF440750C9503238DF835300023C7
:101870008DF837308DF8363001248DF83440984893
:101880000CA9FEF737FC0C9596480CA9FEF732FC24
:101890004FF080502146FFF765FD2046FFF7D4F852
:1018A000914B1B6D1B68DBB2904A1370032B04D95C
:1018B000022313708C4A126D13608B4B1B6F1B68D5
:1018C000DBB28B4A1370032B04D900231370864AB2
:1018D000126D936000F0FAFD02F0ECF86420FFF75F
:1018E00057FF342002F07AF83C2002F077F800200D
:1018F00002F0CCF8022002F0B5F8182002F090F8BF
:101900007A4B1B78022B17D0032B0AD0012B1BD14B
:10191000032002F095F804200121032201F08EF843
:1019200012E0022002F08CF803200121024601F0AF
:1019300085F800F031FE07E006200121032201F0C6
:101940007DF8002002F07CF800F0C8FD00F0AEFD4C
:1019500001F09EF80A20FFF71BFF01F053F9DFF8B2
:101960008CA15E4C634D0F20FFF712FF9AF80030F8
:10197000032B12D1604B1B78012B07D103200121CF
:10198000024601F05BF800F0B1FD06E00320012102
:101990000A4601F053F800F0A1FDA289A3689A421B
:1019A00000F0B780002A40F0B280002B00F0AF803A
:1019B000042B00F0858004D8012B0CD0022B6BD0B7
:1019C000A5E0B3F5007F4CD0B3F5806F0FD0802B2E
:1019D00040F09D802AE04FF4FA70FFF7D9FE052011
:1019E0000121032201F02AF800F050FD8FE000F001
:1019F0007DFD032002F024F803200021024601F0BF
:101A00001DF806200021032201F018F8042001210E
:101A1000032201F013F801238AF8003000F010FED1
:101A2000314B1B6D9AF800201A6070E0022002F022
:101A300007F806200021032201F000F8042000210D
:101A4000032200F0FBFF03200121024600F0F6FF15
:101A500000F0A2FD03238AF80030234A126D1360C0
:101A600055E003200021024600F0E8FF0420002199
:101A7000032200F0E3FF06200121032200F0DEFF35
:101A8000002001F0DDFF00F0DBFD02238AF80030CA
:101A9000154A126D13603AE0A37B43B10021A17394
:101AA0000220032200F0CAFF00F020FD2FE00121F8
:101AB000A1730220032200F0C1FF00F00FFD26E019
:101AC0000B4A13780133DBB21370052B16D90022B1
:101AD000074B1A7000F0F2FC14E000BF5401002024
:101AE00000000240000802400028004014030020CB
:101AF0001F030020398EE3382602002000F0D6FCB8
:101B000000F0C6FFCE4B1B6DCE4A12789A60A368D8
:101B1000A38100F0A3FD236918442061237D0133D4
:101B2000DBB22375042B40F27A81C74BA3FB001074
:101B30008008206140F6E343984239D8072001210C
:101B4000032200F07BFF08200121032200F076FF32
:101B500009200121032200F071FF0A200121032244
:101B600000F06CFF4FF44870FFF712FE0A200021CE
:101B7000032200F063FF4FF44870FFF709FE0920CD
:101B80000021032200F05AFF4FF44870FFF700FED7
:101B900008200021032200F051FF4FF44870FFF7A6
:101BA000F7FD07200021032200F048FF00F06EFC43
:101BB000236940F64752934213D80720002103229D
:101BC00000F03CFF08200021032200F037FF09202D
:101BD0000021032200F032FF0A200021032200F03E
:101BE0002DFF2369A3F64853432B13D80720012167
:101BF000002200F023FF08200021032200F01EFF36
:101C000009200021032200F019FF0A2000210322ED
:101C100000F014FF2369A3F68C53432B13D807203D
:101C200001210A4600F00AFF08200021032200F0EB
:101C300005FF09200021032200F000FF0A200021F7
:101C4000032200F0FBFE2369A3F55D63442B13D848
:101C500007200121032200F0F1FE082000210322C9
:101C600000F0ECFE09200021032200F0E7FE0A202C
:101C70000021032200F0E2FE2369A3F61563432B43
:101C800013D807200121032200F0D8FE08200121EB
:101C9000002200F0D3FE09200021032200F0CEFE36
:101CA0000A200021032200F0C9FE2369A3F659632C
:101CB000432B13D807200121032200F0BFFE082088
:101CC0000121032200F0BAFE09200021032200F0C6
:101CD000B5FE0A200021032200F0B0FE2369A3F61E
:101CE0009D63872B13D807200121032200F0A6FE55
:101CF00008200121032200F0A1FE09200121002279
:101D000000F09CFE0A200021032200F097FE2369C8
:101D1000A3F62573432B13D807200121032200F0DB
:101D20008DFE08200121032200F088FE09200121F8
:101D30000A4600F083FE0A200021032200F07EFE06
:101D40002369A3F66973442B13D8072001210322CA
:101D500000F074FE08200121032200F06FFE09202C
:101D60000121032200F06AFE0A200021032200F074
:101D700065FE2369A3F6AE73432B13D80720012118
:101D8000032200F05BFE08200121032200F056FE32
:101D900009200121032200F051FE0A200121002226
:101DA00000F04CFE2369A3F6F273432B13D80720EF
:101DB0000121032200F042FE08200121032200F04D
:101DC0003DFE09200121032200F038FE0A200121F6
:101DD0000A4600F033FE236941F23502934213D9DB
:101DE00007200121032200F029FE082001210322FF
:101DF00000F024FE09200121032200F01FFE0A202A
:101E00000121032200F01AFE00232361237500F054
:101E100025FC40F6D273984201D900F06FFB00F028
:101E200089FB01460020032200F008FE00F0EAFED4
:101E3000044B1B78052B09D101F096F86AE100BF2D
:101E4000002800401F030020CDCCCCCC013BDBB2EE
:101E5000032B00F25F8102AE304600F013FCBDF8A8
:101E6000083003EB43035B10ADF808304FF6FF7109
:101E70000DF10603304604AF002633F8022FB242BC
:101E800028BF16468A4238BF1146BB42F5D1E182CF
:101E90002683A37E5A1CD2B2A27604EB43039E8310
:101EA00094F86C60731CDBB284F86C3004EB46066B
:101EB000A6F87010282A04BF0022A276282B40F032
:101EC0002F81002384F86C302AE104F11C069E5B0C
:101ED000B14238BF314604F170069E5BB24228BF62
:101EE00032460233502BF0D102AB14308E1A1988CF
:101EF000891A01EB8101C1EB012191FBF6F123F875
:101F0000021B8342F3D1BDF80830ADF81C30BDF898
:101F10000A20900085FB006003EB830185FB0171C3
:101F2000491001EB6001ADF81E10D10085FB0101E5
:101F300085FB03635B1003EB6103ADF82030BDF854
:101F40000C3003EB430185FB017149085600324414
:101F5000520085FB020201EB6202ADF82220C3EBC6
:101F6000C30385FB0320DB17C3EB600080B285FB56
:101F7000063600EB6606ADF82460BDF80E2053006F
:101F800085FB037600EB6600ADF8260013445B008A
:101F900085FB030301EB6301ADF82810BDF8103099
:101FA000D00085FB001085FB0361491001EB600147
:101FB000ADF82A1003EB830185FB0171920085FBCC
:101FC0000202521002EB6102ADF82C20ADF82E3067
:101FD0005A4B1B78012B26D10DF11A0800273E46DB
:101FE00040F2FB4B38F8029F384600F0C9FE8DF8EE
:101FF0003800C0F307238DF83930C0F307408DF85F
:102000003A000E9BADF800301B0C8DF80230F0B298
:1020100049465A46052300F0FDFF01361E37BFB280
:102020000A2EDFD176E0022B32D194F8C030013392
:10203000DBB2022B79D9002384F8C030B4F8C23067
:102040000133A4F8C23072E038F8029FB4F8C2003D
:10205000384480B200F094FE8DF83C00C0F30723B2
:102060008DF83D30C0F307408DF83E000F9BADF872
:1020700000301B0C8DF80230F0B249465A46052359
:1020800000F0C8FF01361E37BFB20A2EDCD141E096
:10209000032B20D10DF11A090026DFF8B080284F5C
:1020A00040F2FB4B39F8021FB8F8002098F80230D4
:1020B000ADF800208DF802303A88BB78ADF80420E6
:1020C0008DF80630F0B25A46052300F0DBFF0136EA
:1020D0000A2EE7D11EE0042B1CD10DF11A080026B0
:1020E000174F40F2FB4938F8021F164B1A889B78AD
:1020F000ADF800208DF802303A88BB78ADF80420A6
:102100008DF80630F0B24A46052300F0BBFF0136D9
:102110000A2EE8D100F0D8FE00220B4B1A7022E400
:1021200000234FF6FF721946CFE684F8C0300DF158
:102130001A0800273E4640F2FB4B85E71F030020AC
:10214000E8000020E40000201C000020E000002047
:1021500008B5074B984209D14FF400700121FFF7F1
:102160000FF94FF400700021FFF70AF908BD00BF16
:102170000024014010B4436823F0407323F48073BB
:102180000A6813430A7943EA022343608468CA68F1
:102190000B691A438B681A43094B234013434A794E
:1021A00043EA42038360026B22F0F8720B7D013B2D
:1021B000DBB242EA035303635DF8044B704700BF90
:1021C000FDF7FFC021B1836843F0010383607047CE
:1021D000836823F001038360704700BF70B41D293A
:1021E0000ED9C66DA1F11E0404EB44040725A540D9
:1021F00026EA050503FA04F445EA0403C3652DE065
:1022000013290ED9C668A1F1140404EB4404072570
:10221000A54026EA050503FA04F445EA0403C36071
:102220001CE009290ED90669A1F10A0404EB440453
:102230000725A54026EA050503FA04F445EA040348
:1022400003610BE0466901EB41040725A54026EA3E
:10225000050503FA04F445EA04034361062A0CD891
:10226000046C013A02EB82021F23934024EA030329
:1022700001FA02F21A43026438E00C2A0CD8C46B4B
:10228000073A02EB82021F23934024EA030301FA78
:1022900002F21A43C26329E0122A0CD8846B0D3A69
:1022A00002EB82021F23934024EA030301FA02F2A5
:1022B0001A4382631AE0182A0CD8446B133A02EBD3
:1022C00082021F23934024EA030301FA02F21A4315
:1022D00042630BE0046B193A02EB82021F23934026
:1022E00024EA030301FA02F21A43026370BC704746
:1022F000836843F080438360704700BF806D80B285
:10230000704700BF036819420CBF002001207047CE
:102310002DE9F04387B00F200121FFF707F80120D6
:102320000146FFF71FF801200146FFF70DF80420D2
:102330000021FEF78FFB364C43F63E432360012716
:1023400027710025E571A57102266671DFF8CC9032
:1023500048462146FDF7CEFE48F2C0032360DFF871
:10236000C08040462146FDF7C5FE48464FF4E05187
:10237000FDF710FF40464FF40041FDF70BFF04232B
:10238000236024482146FDF7B5FE4FF43F732360D8
:1023900008F5806840462146FDF7ACFE26602671B0
:1023A000E57140462146FDF7A5FE27600323237112
:1023B000E571A571667140462146FDF79BFE3846E2
:1023C000FEF782FF21242046FEF7E8FF0028FAD01E
:1023D0004FF400700121FEF7B7FF0F4D2846FFF7BD
:1023E000B7FE0023009301248DF804408DF80530DA
:1023F0000293039304938DF8144028466946FFF72F
:10240000B9FE28462146FFF7DDFE07B0BDE8F083A0
:102410001C020020000C0240002401400008024081
:102420000000024038B501460A4C204601221346FE
:10243000FFF7D4FE2046FFF75BFF2546022428461F
:102440002146FFF75FFF0028F9D00248FFF756FF4B
:1024500038BD00BF0024014010B50446042000F040
:10246000D1FFB4F1807F0CD224F07F44013C054BB6
:102470005C60F021044A82F8231000229A6007224F
:102480001A6010BD10E000E000ED00E008B5042087
:102490000121FEF7DFFAFEF7E9FA08BD08B50248A8
:1024A0000821FDF777FE08BD0008024008B5024884
:1024B0000421FDF76FFE08BD0008024008B5024880
:1024C0000421FDF769FE08BD0008024008B5024876
:1024D0004021FDF75FFE08BD0000024008B502483C
:1024E0001021FDF757FE08BD0008024008B502485C
:1024F0001021FDF751FE08BD0008024008B5044850
:102500004FF40071FDF746FE0022024B1A7008BD21
:1025100000040240C800002008B504484FF40071D0
:10252000FDF73AFE0122024B1A7008BD000402407A
:10253000C80000202DE9F047154C10272760002522
:1025400025714FF0010984F80790A5714FF002083A
:1025500084F805800F4E30462146FDF7CBFD642000
:10256000FEF798FA30463946FDF70EFE82462760A0
:1025700084F80490E571A57184F805803046214601
:10258000FDF7B8FDAA4514BF00200120BDE8F08783
:102590001C0200200004024070B588B024480221CB
:1025A000FDF7F8FD02200121FEF7DCFE21480121A4
:1025B0000222FDF7F3FD0024ADF816404FF6FF139D
:1025C000ADF814304FF4FA530693ADF81C401A4E90
:1025D000304605A901F0ACF80C23ADF80830ADF891
:1025E0000A400125ADF80C50ADF80E40ADF8104092
:1025F000304602A901F03EF9304610212A4601F08A
:102600009BF91D238DF804300A238DF805308DF8D1
:1026100006308DF8075001A800F0BCFE4FF00052C4
:10262000064B1A603046294601F0B6F808B070BD76
:1026300000080240000402400004004000E100E005
:1026400008B50448002101F0A7F803480221FDF76E
:10265000A3FD08BD000400400008024008B50A20A0
:10266000FFF7E0FE00EB4003C0EBC300044B83FB2D
:102670000023C017C0EB63002C3880B208BD00BF38
:10268000676666662DE9F0418046184C20464FF497
:102690000061FDF77FFD20460421FDF77BFD0A2048
:1026A000FEF7F8F920460421FDF776FD00240F4ED1
:1026B0004FF480654FF4487730462946FDF76CFDAE
:1026C0003846FEF7E7F90820FFF7ACFE28F80400CB
:1026D00030462946FDF75EFD4FF4C870FEF7DAF983
:1026E00002340A2CE8D1BDE8F08100BF00040240AA
:1026F00010B51348102101F02BF900B3104C2046FF
:10270000102101F031F9204601F07EF880B20D4B26
:102710001B8998428EBFC3EB0003C3F5FA531B1805
:102720009BB2084A1081A3F227239BB2622B03D8E5
:102730000122044B9A7210BD0022024B9A7210BD06
:10274000000400401C02002070B54FF000424EF221
:102750007C131A604A4C4FF4E0532360002323712A
:102760000123E371474D28462146FDF7C3FC4FF492
:102770000043236044482146FDF7BCFC042323604A
:102780000223E37141482146FDF7B4FC082323608E
:102790003F482146FDF7AEFC4FF400532360284626
:1027A0002146FDF7A7FC42F2107300BF013BFCD1AC
:1027B00034484FF48061FDF7E7FC00280CBF80250A
:1027C000002530484FF40061FDF7DEFC08B945F400
:1027D00000752C484FF48051FDF7D6FC08B945F43C
:1027E000806529484FF40041FDF7CEFC08B945F457
:1027F000807524484FF40051FDF7C6FC08B145F040
:10280000010522480421FDF7BFFC08B145F002058F
:102810001F480821FDF7B8FC08B145F00405184C25
:102820004FF4E0532360012323710023E371A3716C
:1028300002236371134E30462146FDF75BFC4FF4D3
:102840000043236010482146FDF754FC0423236015
:102850000E482146FDF74EFC082323600C48214614
:10286000FDF748FC4FF40053236030462146FDF746
:1028700041FC4FF000424EF2FC031A60284670BD46
:102880001C0200200008024000000240000C024030
:10289000000402402DE9F04796B0664E0BAC354679
:1028A0000FCD0FC40FCD0FC495E8070084E80700D3
:1028B00005AC354655F82C0F6968AA68EB680FC45B
:1028C00028692060AB8AA38003AB324652F8440FDC
:1028D000516803C301AB56F84C0F716803C34FF046
:1028E000FD0800252F462C46534EAA46A14606EB6E
:1028F00084031B7B13F0010F10D1B8F1030F06D92D
:102900000BABD85905AB595BFDF746FC85E00BAB2B
:10291000D85905AB595BFDF73DFC7EE006EB84031F
:102920001B7BC3F34203032B10D1B8F1030F06D96D
:102930000BABD85905AB595BFDF72CFC6DE00BAB2D
:10294000D85905AB595BFDF727FC66E006EB84031D
:10295000DB899BB253BBB8F1030F13D90BABD8592A
:1029600005AB595BFDF716FC06EB8403DA8992B2DE
:102970001B7B03F00E0316A90B4433F8543C93421F
:1029800024D930E00BABD85905AB595BFDF704FCFB
:1029900006EB8403DA8992B21B7B03F00E0316A9BF
:1029A0000B4433F8543C934217D91CE006EB8403E4
:1029B000DA8992B21B7B03F00E0316A90B4433F89D
:1029C000543C93420FD8B8F1030F06D90BABD8593A
:1029D00005AB595BFDF7E0FB05E00BABD85905AB48
:1029E000595BFDF7D7FB06EB8903DA8992B21B7BB3
:1029F00003F00E0316A90B4433F84C3C934204D861
:102A000006EB8909A9F80EA007E006EB8909B9F8D9
:102A10000E3001339BB2A9F80E3001340437023571
:102A200008F101085FFA88F80B2C7FF45FAF16B04D
:102A3000BDE8F087E44700081C02002010B4134BE7
:102A400003EB80031C7B24F00104002918BF44F031
:102A500001041C73002908BF03220C4B03EB800305
:102A60001B7BC3F3420393420CD0084B03EB800063
:102A700002F00702037B23F00E0343EA42020273D3
:102A80000023C3815DF8044B704700BF1C02002087
:102A90002DE9F04395B0434B434A1A601178197100
:102AA0005178597191789971D178D97112791A72D6
:102AB0004FF48079CDF8489000248DF84E400227DD
:102AC0008DF84C7003238DF84D308DF84F40374D05
:102AD000284612A9FDF70EFB284608213A46FDF7C5
:102AE0005DFB04200121FEF73DFC0A231093042323
:102AF000ADF83C30ADF84440ADF83E402C4E304689
:102B00000FA900F015FE6023ADF830300125ADF8B7
:102B100032500D94ADF8384030460CA900F04AFE12
:102B20003046082100F068FE4FF080702946FEF71D
:102B3000FDFBDFF88880404600F0ECFA40F2C44329
:102B40000493102303930B941A4B02934FF4806366
:102B50000893802306930994174B0193CDF81C909A
:102B600005944FF400530A93404601A900F062FB1C
:102B7000404639462A4600F07DFB0F238DF8003091
:102B80008DF801408DF802408DF80350684600F042
:102B900001FC30464FF400612A4600F0E9FE15B012
:102BA000BDE8F08360020020B84500080004024040
:102BB00000080040E40500203C0800405860024046
:102BC00008B54FF4003000F05FFBA8B10B4A0023BA
:102BD000D363138823F001031B041B0C1380084BE1
:102BE0001A6822F001021204120C1A604FF400302D
:102BF000583B586000F058FB08BD00BF000800407B
:102C00005860024000230E48032140F2C44220F8DD
:102C1000131001339342FAD1002309491A4621F8CF
:102C2000132001330A2BFAD140F2C4430448002197
:102C300040F2BA4220F81310013B9342FAD1704798
:102C4000E405002070B4354B8C781C5D8C700C78DA
:102C50001C5D0C704C781B5D4B7052BB1030002318
:102C60002F4AA0F110054E781E4106F00106002EF5
:102C70000CBF0326072622F81560A0F108050E7880
:102C80001E4106F00106002E0CBF0326072622F87F
:102C900015608D7845FA03F404F00104002C0CBF94
:102CA0000324072422F8104001330130082BD8D127
:102CB00031E0103007231A4A1C464D781D4115F0AB
:102CC000010F08D0A0F1100532F81560B6B246F039
:102CD000070622F815600D78254115F0010F08D080
:102CE000A0F1080532F81560B6B246F0070622F8E2
:102CF00015608D7845FA04F414F0010F06D032F80F
:102D00001040A4B244F0070422F81040013B013007
:102D1000B3F1FF3FD0D170BC704700BF3848000806
:102D2000E405002030B484B0642928BF6421C1F1D7
:102D30006502D2B2C0F3072404FB02F40E4B83FBFE
:102D40000414C0F3074101FB02F183FB0151C0B23F
:102D500002FB00F283FB02030020C3F3471363F37B
:102D60000700C4F3471464F30F20C1F3471161F364
:102D7000174004B030BC70471F85EB5100000000C5
:102D80002DE9F04383B0C208354BA3FB02139B0827
:102D90004FF4B47202FB130080B201F0FBF8002282
:102DA000304B01F097FA04460D4601F07BFB86B2EA
:102DB000304601F0FFF802460B462046294600F057
:102DC000ABFF25A3D3E9002301F05AF904460D46D1
:102DD00021A1D1E9000122462B4600F09DFF01F020
:102DE00061FB5FFA80F92046294601F05BFBC0B227
:102DF000052E04D8DFE806F020060A10151A4FF059
:102E000000091DE000274FF0FF0819E007464FF0CA
:102E1000FF084FF0000913E0C846FF274FF00009F4
:102E20000EE08146FF274FF0000809E04F464FF0C3
:102E300000084FF0FF0903E0804600274FF0FF092C
:102E4000002069F3070068F30F2067F3174003B011
:102E5000BDE8F083AFF300800000000000E06F40A9
:102E6000176CC11600004E40F0B591B004460D46F7
:102E70000192092824D8042922D8124B03F5807620
:102E80000DF10C0E03F5987C774630687168B268D6
:102E9000F3680FC71036BE466645F5D133883B80D0
:102EA00005EB850510AB03EB45052C4414F8343CC9
:102EB00003EB4303D8000A3001A90122FFF7C2FE49
:102EC00011B0F0BD38480008084A40F2C4435360CE
:102ED000074B00215962D963198889B241F0010179
:102EE0001980136843F00103136070475860024073
:102EF00000080040F0B583B00192092831D80429B8
:102F00002FD8C4B2CEB23746254608E02846394607
:102F1000019AFFF7A9FF0135EDB2013FFFB215F0AD
:102F2000800F02D017F0800F0FD16BB2092BEDDDAF
:102F30007BB2042BEADD08E020463146019AFFF718
:102F400093FF013CE4B20136F6B214F0800F02D0D8
:102F500016F0800F05D163B2092BEDDD73B2042B9F
:102F6000EADD03B0F0BD00BF2DE9F04F83B0274B81
:102F70001B88053B9BB21AB2002A02DD234A13804C
:102F800003E040F26712214B1A80FFF73BFE4FF03F
:102F900000094D46DFF878B0DFF870A01BE0BAF802
:102FA0000000384480B2FFF7EBFE8DF80400C0F358
:102FB00007238DF80530C0F307408DF80600304632
:102FC0004146019AFFF796FF013CE8D1013509F52A
:102FD000B4790E2D16D0A5F10908092DD8BF4FF0F0
:102FE00000085FFA88F88BFB09374F444FEAE97312
:102FF000C3EBE707BFB20524092DB4BF2E4609264F
:10300000F6B2CCE703B0BDE8F08F00BFCC000020E3
:10301000932449922DE9F04782B007468A469046AC
:10302000994601FB03F6B6FBF2F616F0FF0609D04F
:1030300000243846E1B20A9AFFF716FF0134E5B2E0
:10304000AE42F6D8CAEB080A0AFB09F9642303FB6F
:1030500009F9B9FBF8F10A98C9B2FFF763FE8DF8D8
:103060000400C0F307238DF80530C0F307408DF846
:10307000060038463146019AFFF7F6FE02B0BDE879
:10308000F08700BF2DE9F04782B007468A46904698
:10309000994601FB03F6B6FBF2F616F0FF0609D0DF
:1030A00000243846E1B20A9AFFF7DEFE0134E5B2A9
:1030B000AE42F6D8CAEB080A0AFB09F9642303FBFF
:1030C00009F9B9FBF8F10B98C9B2FFF72BFE8DF89F
:1030D0000400C0F307238DF80530C0F307408DF8D6
:1030E000060038463146019AFFF7BEFE02B0BDE841
:1030F000F08700BF28B1064B5A6842F001025A60BF
:103100007047034B5A6822F001025A60704700BFB3
:1031100000000140036823F001031B041B0C036043
:103120000023036043608360C360364B984205D13F
:10313000083B5A6842F00F025A607047324B98427F
:1031400005D11C3B5A6842F0F0025A6070472F4B81
:10315000984205D1303B5A6842F470625A60704719
:103160002B4B984205D1443B5A6842F470425A6056
:103170007047284B984205D1583B5A6842F4702258
:103180005A607047244B984205D16C3B5A6842F410
:1031900070025A607047214B984205D1803B5A68B3
:1031A00042F070625A6070471D4B984205D1083B4F
:1031B0005A6842F00F025A6070471A4B984205D184
:1031C0001C3B5A6842F0F0025A607047164B984216
:1031D00005D1303B5A6842F470625A607047134B15
:1031E000984205D1443B5A6842F470425A60704795
:1031F0000F4B984204D1583B5A6842F470225A60EF
:10320000704700BF086002401C600240306002400E
:1032100044600240586002406C600240806002409E
:10322000086402401C64024030640240446402406E
:103230005864024010B4036823F4FF4323F0700382
:103240000C6A8A6814430A6914434A6914438A69F8
:103250001443CA6914434A6A14438A6A22431343D3
:103260000360CB6843600B6883604B68C3605DF8A4
:10327000044B70471AB10368194301607047036833
:1032800023EA01010160704710F0805F0CBF044B1E
:10329000044B1B6803420CBF00200120704700BF95
:1032A000006002400064024010F0805F0CBF024BDF
:1032B000024B5860704700BF00600240006402404B
:1032C000ABBE00F002B800207047002A00F0018079
:1032D00010600120704706980188044A914240F02E
:1032E0000380043006907047FEE70000ABBE00008C
:1032F000704700BF38B50120FDF708FD42061E4BA0
:1033000035D51E4A196803F59A6389B20A445200FA
:103310001468C4F309040134A41015D0184D0833FF
:10332000002200E00A4633F8080C33F8041C80F44D
:10333000004081F4004141EA0040511C8C4245F8B4
:10334000220003F10803EDD10E4B0F4918684FF628
:10335000FE72024020201A6048605C601A680120FA
:1033600002431A600146BDE83840FDF7B3BE196854
:10337000064A03F5A663C8E7505C00400A30002007
:103380006C0F00201C600240006002400E300020E4
:10339000704700BF10B4C37813B3184BDB68DB432E
:1033A000C3F302234178C3F10402D2B201FA02F25C
:1033B000D2B2DBB20F2119418478214011430901B7
:1033C000C9B202780E4B1A4482F8001302785109F0
:1033D00002F01F02012000FA02F243F821200AE065
:1033E0000378590903F01F03012202FA03F3203185
:1033F000034A42F821305DF8044B704700ED00E0CD
:1034000000E100E00428044B1A680CBF42F00402FB
:1034100022F004021A60704710E000E082B000233E
:1034200001930F4BCA225A6253225A62DA6822F081
:10343000A002DA601946CB6803F02002019B013339
:103440000193019BB3F5004F01D0002AF3D0044B48
:10345000D868FF225A62C0F3401002B0704700BF24
:103460000028004008B5074B074A136002221A7271
:10347000064B074A13600749074A11601B689847C3
:1034800008BD00BF40100020601000202000002078
:1034900038100020800000205C10002070B582B041
:1034A0000023ADF80630444E444C454D7BE0208867
:1034B00000F00F002870002854D1FDF727FC414B85
:1034C0001880198801F030013F4A11801A8802F4EF
:1034D00040521A8000204FF400512022FDF768FC72
:1034E000238803F010039BB273B90020FDF7DAFCC8
:1034F000FDF776FA334B1988334B1A88002089B2CE
:1035000092B2FDF755FC55E00020FDF7FFFBADF84A
:103510000600BDF8063003F400639BB273B10020CF
:10352000FDF7B4FCFDF74EF8264B1988264B1A8898
:10353000002089B292B2FDF73BFC3BE0BDF80630BB
:103540001BB2002B2FDA0020FDF7A0FCFDF7C2F91B
:103550001C4B19881C4B1A88002089B292B2FDF7C7
:1035600027FC27E0FDF7D2FBADF80600BDF80630DA
:103570001BB2002B08DA2878FDF788FC2A78013A7C
:10358000124B53F822309847BDF8063003F0800301
:103590009BB243B12878FDF785FC2A78013A0C4BA1
:1035A00053F82230984733689AB2228013F4004FC0
:1035B0007FF47DAF02B070BD445C00406610002017
:1035C0003C100020341000203E100020F0000020AD
:1035D0000C01002070B5184D184C194E25E06FF401
:1035E00000432B60208800F00F003070FDF78EFB49
:1035F00020F4FF4323F07F039BB24BB13078FDF7FB
:1036000045FC3278013A0F4B53F8223098470CE0D2
:1036100000F0800080B240B13078FDF743FC327892
:10362000013A094B53F8223098472B689AB222800E
:1036300013F4004FD3D170BD445C004066100020ED
:103640003C100020F00000200C01002010B40132DA
:1036500001F1005101F54051490053100DD00A1DF0
:10366000023010F8014C10F8021C41EA042122F843
:10367000041C04320230013BF3D15DF8044B704767
:10368000013201F1005101F540514900531005D0BC
:1036900051F8042B20F8022B013BF9D1704700BFF1
:1036A0000020044B18604FF43643034A1380034A4A
:1036B00013607047445C004064100020405C004090
:1036C00030B4048C24F001042404240C0484058BFD
:1036D000ADB2048CA4B225F0F3052A4342EA0313E9
:1036E0009DB224F00A0444F00104214305830184BF
:1036F00030BC704730B4048C24F010042404240C33
:103700000484058B048CA4B225F440752D052D0D81
:1037100045EA022242EA03339BB224F0A00444F0BB
:10372000100444EA01118CB20383048430BC704756
:1037300003889BB2B0F1804F0AD0114A904207D063
:1037400002F58062904203D002F58062904203D17C
:1037500023F070034A8813430A4A904208D002F5C6
:103760008062904204D023F440739BB20A891343D1
:1037700003804B68C3620B880385012383827047F3
:1037800000040040001000404FF0FF33436000236E
:10379000038003814380704729B103889BB243F0C3
:1037A000010303807047038823F001031B041B0CF3
:1037B0000380704710B4038C23F480731B041B0C2C
:1037C0000384038C828B22F070021204120C0C888A
:1037D000224323F400731B041B0C0C8943EA0423CB
:1037E0004C8843EA04239BB24968C1638283038403
:1037F0005DF8044B704700BF838B23F008031B0464
:103800001B0C194381837047006C7047038B23F0B6
:103810000C031B041B0C0383038B9BB21943018312
:10382000704700BF038B23F440631B041B0C03830E
:10383000038B9BB243EA01218BB20383704700BF25
:10384000838B23F00C031B041B0C8383838B9BB2A1
:1038500019438183704700BF838B23F440631B04AB
:103860001B0C8383838B9BB243EA01218BB283833E
:10387000704700BF70B504460D460B884BB94988A8
:10388000AA882B89FFF71CFF2046E988FFF7BEFFB7
:1038900070BD042B09D14988AA882B89FFF72AFF1C
:1038A0002046E988FFF7BEFF70BD082B20D149886C
:1038B000A8882E89238C23F480731B041B0C23847B
:1038C000A28B92B2238C9BB222F0F30242EA061240
:1038D00092B2024323F4206343EA01239BB243F4F0
:1038E0008073A28323842046E988FFF7A9FF70BD77
:1038F0004988AE882889238C23F480531B041B0C31
:103900002384A38B228C23F440731B051B0D43EAF5
:10391000062343EA00339BB222F400525204520CB5
:1039200042EA013292B242F48052A38322842046BA
:10393000E988FFF791FF70BD22B183899BB21943DB
:103940008181704783899BB223EA0101818170479D
:10395000038A828992B2194204D011420CBF00201E
:103960000120704700207047C94389B20182704727
:1039700022B183899BB219438181704783899BB2AD
:1039800023EA010181817047838823F070031B04BF
:103990001B0C838083889BB219438180704700BFD2
:1039A000F8B50746FDF77EF800248826FDF79CF859
:1039B0003046FDF7DDF810B9FDF710F9F6E73846A7
:1039C000FDF7D6F80546FDF709F92DB90134E4B243
:1039D000132CEBD90120F8BD0020F8BD08B53F2815
:1039E00028BF3F20C0F13F00C0B2FFF7D9FF08BD9C
:1039F00008B51F2828BF1F20C0F11E0060F03F003F
:103A0000C0B2FFF7CDFF08BD08B51F2828BF1F2093
:103A1000C0F11E0060F01F00C0B2FFF7C1FF08BD7B
:103A200008B51822044B1A70044B187840F058005F
:103A3000FFF7B6FF08BD00BFEC000020E002002049
:103A400008B5042828BF0020044B1870044B1B78CD
:103A500043F040031843FFF7A3FF08BDE002002036
:103A6000EC00002008B56FF006039842B8BF184676
:103A70000728A8BF07200028ACBF0830073040B295
:103A800040F06000C0B2FFF78BFF08BD08B56FF0D3
:103A900006039842B8BF18460728A8BF0720002889
:103AA000ACBF0830073040B240F07000C0B2FFF742
:103AB00077FF08BD08B5FCF7F5FFFEF7EFFCC8205F
:103AC000FDF766FE3C20FFF789FF0220FFF7B8FFF5
:103AD0000020FFF7A5FF0020FFF7C4FF0020FFF73D
:103AE000D5FF1E20FFF784FF1E20FFF78DFF642007
:103AF000FDF74EFE3C20FFF771FF08BD2DE9F041B8
:103B000094B001200146FDF711FC302312930323EA
:103B10008DF84C3000248DF84E408DF84F408DF8D4
:103B20004D30364812A9FCF7E5FA35480121FDF77A
:103B300019FC4FF080700121FDF7F8FB0FA8FFF78B
:103B400023FE304B1A68304BA3FB02139B0A013B48
:103B50001093ADF83C40ADF84440ADF83E402B4EDC
:103B600030460FA9FFF7E4FD30462021FFF70CFF98
:103B7000DFF8A4804046FFF7CDFA254B0493254B90
:103B8000059310270697012507950894802309932C
:103B90004FF400730A934FF400630B930C944FF4AB
:103BA00000530D930E9440460DEB0701FFF742FBC7
:103BB0000294142300930194022303932046694640
:103BC000FDF72AF838466946FDF726F820462946CB
:103BD000FDF73AF838462946FDF736F820462946DB
:103BE000FDF746F830462946FFF7D6FDFDF706FB00
:103BF000FFF738FC14B0BDE8F08100BF00000240C0
:103C000020000020A8000020F119760500140040D3
:103C1000247400406C0F00201C60024008B5284B43
:103C20001A6892B2274B1A801A88274B1B881340B8
:103C300003F400739BB253B16FF40072204B1A600F
:103C4000224B1A780132D2B21A70FFF7A1FB1D4B3A
:103C50001A881D4B1B88134003F400439BB20BB121
:103C6000FFF71CFC174B1A88174B1B88134003F4F3
:103C700080639BB233B16FF48062114B1A60144BB6
:103C80005B6898470F4B1A880F4B1B88134003F44F
:103C900000539BB21BB16FF40052094B1A60094BE1
:103CA0001A88094B1B88134003F480539BB233B12D
:103CB0006FF48052024B1A600020FDF707FD08BD2B
:103CC000445C00406610002064100020E4020020E4
:103CD0002000002010B50120FCF7B6FE0120FDF702
:103CE0001FFB0020FDF71CFB0120FDF7F3FA492420
:103CF0002046FDF753FB0028FAD04FF48030FDF743
:103D0000F1FA0120FDF706FBFFF788FB10BD00BFAD
:103D100081F0004102E000BF83F0004330B54FEA7C
:103D200041044FEA430594EA050F08BF90EA020FE9
:103D30001FBF54EA000C55EA020C7FEA645C7FEA7C
:103D4000655C00F0E2804FEA5454D4EB5555B8BF9F
:103D50006D420CDD2C4480EA020281EA030382EA10
:103D6000000083EA010180EA020281EA0303362DA2
:103D700088BF30BD11F0004F4FEA01314FF4801C75
:103D80004CEA113102D0404261EB410113F0004F87
:103D90004FEA03334CEA133302D0524263EB43033E
:103DA00094EA050F00F0A780A4F10104D5F1200EDC
:103DB0000DDB02FA0EFC22FA05F2801841F1000137
:103DC00003FA0EF2801843FA05F359410EE0A5F10B
:103DD00020050EF1200E012A03FA0EFC28BF4CF03C
:103DE000020C43FA05F3C01851EBE37101F00045F2
:103DF00007D54FF0000EDCF1000C7EEB00006EEBFF
:103E00000101B1F5801F1BD3B1F5001F0CD3490888
:103E10005FEA30004FEA3C0C04F101044FEA4452DF
:103E200012F5800F80F09A80BCF1004F08BF5FEA66
:103E3000500C50F1000041EB045141EA050130BD46
:103E40005FEA4C0C404141EB010111F4801FA4F1E9
:103E50000104E9D191F0000F04BF01460020B1FA3E
:103E600081F308BF2033A3F10B03B3F120020CDA76
:103E70000C3208DD02F1140CC2F10C0201FA0CF054
:103E800021FA02F10CE002F11402D8BFC2F1200CB9
:103E900001FA02F120FA0CFCDCBF41EA0C0190406F
:103EA000E41AA2BF01EB0451294330BD6FEA0404B8
:103EB0001F3C1CDA0C340EDC04F11404C4F12002A3
:103EC00020FA04F001FA02F340EA030021FA04F3B5
:103ED00045EA030130BDC4F10C04C4F1200220FA0C
:103EE00002F001FA04F340EA0300294630BD21FA4A
:103EF00004F0294630BD94F0000F83F4801306BF10
:103F000081F480110134013D4EE77FEA645C18BF03
:103F10007FEA655C29D094EA050F08BF90EA020F9A
:103F200005D054EA000C04BF1946104630BD91EA92
:103F3000030F1EBF0021002030BD5FEA545C05D195
:103F40004000494128BF41F0004130BD14F58004D4
:103F50003CBF01F5801130BD01F0004545F0FE4148
:103F600041F470014FF0000030BD7FEA645C1ABF7D
:103F7000194610467FEA655C1CBF0B46024650EAB4
:103F8000013406BF52EA033591EA030F41F40021E0
:103F900030BD00BF90F0000F04BF0021704730B566
:103FA0004FF4806404F132044FF000054FF000013B
:103FB00050E700BF90F0000F04BF0021704730B5FC
:103FC0004FF4806404F1320410F0004548BF4042D1
:103FD0004FF000013EE700BF42004FEAE2014FEA26
:103FE00031014FEA02701FBF12F07F4393F07F4F01
:103FF00081F06051704792F0000F14BF93F07F4F33
:10400000704730B54FF4607401F0004521F0004175
:1040100020E700BF50EA010208BF704730B54FF0FB
:1040200000050AE050EA010208BF704730B511F000
:10403000004502D5404261EB41014FF4806404F138
:1040400032045FEA915C3FF4DCAE4FF003025FEABA
:10405000DC0C18BF03325FEADC0C18BF033202EB42
:10406000DC02C2F1200300FA03FC20FA02F001FA9C
:1040700003FE40EA0E0021FA02F11444C1E600BF3B
:1040800070B54FF0FF0C4CF4E06C1CEA11541DBFEE
:104090001CEA135594EA0C0F95EA0C0F00F0DEF8B9
:1040A0002C4481EA030621EA4C5123EA4C5350EA9E
:1040B000013518BF52EA033541F4801143F48013EF
:1040C00038D0A0FB02CE4FF00005E1FB02E506F080
:1040D0000042E0FB03E54FF00006E1FB03569CF0D5
:1040E000000F18BF4EF0010EA4F1FF04B6F5007FDB
:1040F00064F5407404D25FEA4E0E6D4146EB06064D
:1041000042EAC62141EA55514FEAC52040EA5E50D5
:104110004FEACE2EB4F1FD0C88BFBCF5E06F1ED87F
:10412000BEF1004F08BF5FEA500E50F1000041EBB6
:10413000045170BD06F0004646EA010140EA020063
:1041400081EA0301B4EB5C04C2BFD4EB0C0541EA85
:10415000045170BD41F480114FF0000E013C00F39A
:10416000AB8014F1360FDEBF002001F0004170BDBE
:10417000C4F10004203C35DA0C341BDC04F11404D7
:10418000C4F1200500FA05F320FA04F001FA05F263
:1041900040EA020001F0004221F0004110EBD37030
:1041A00021FA04F642EB06015EEA430E08BF20EA5C
:1041B000D37070BDC4F10C04C4F1200500FA04F3FF
:1041C00020FA05F001FA04F240EA020001F0004191
:1041D00010EBD37041F100015EEA430E08BF20EA04
:1041E000D37070BDC4F1200500FA05F24EEA020E4C
:1041F00020FA04F301FA05F243EA020321FA04F07B
:1042000001F0004121FA04F220EA020000EBD37031
:104210005EEA430E08BF20EAD37070BD94F0000F31
:104220000FD101F00046400041EB010111F4801F65
:1042300008BF013CF7D041EA060195F0000F18BF16
:10424000704703F00046520043EB030313F4801F52
:1042500008BF013DF7D043EA0603704794EA0C0F0C
:104260000CEA135518BF95EA0C0F0CD050EA410622
:1042700018BF52EA4306D1D181EA030101F000419F
:104280004FF0000070BD50EA410606BF10461946C7
:1042900052EA430619D094EA0C0F02D150EA0136D3
:1042A00013D195EA0C0F05D152EA03361CBF104614
:1042B00019460AD181EA030101F0004141F0FE41B3
:1042C00041F470014FF0000070BD41F0FE4141F437
:1042D000780170BD70B54FF0FF0C4CF4E06C1CEA37
:1042E00011541DBF1CEA135594EA0C0F95EA0C0FEC
:1042F00000F0A7F8A4EB050481EA030E52EA0335A7
:104300004FEA013100F088804FEA03334FF08055C7
:1043100045EA131343EA12634FEA022245EA1115F4
:1043200045EA10654FEA00260EF000419D4208BFA5
:10433000964244F1FD0404F5407402D25B084FEA52
:104340003202B61A65EB03055B084FEA32024FF4FE
:1043500080104FF4002CB6EB020E75EB030E22BF5B
:10436000B61A754640EA0C005B084FEA3202B6EB1B
:10437000020E75EB030E22BFB61A754640EA5C00CA
:104380005B084FEA3202B6EB020E75EB030E22BF5A
:10439000B61A754640EA9C005B084FEA3202B6EB5B
:1043A000020E75EB030E22BFB61A754640EADC001A
:1043B00055EA060E18D04FEA051545EA16754FEA7C
:1043C00006164FEAC30343EA52734FEAC2025FEA9A
:1043D0001C1CC0D111F4801F0BD141EA00014FF029
:1043E00000004FF0004CB6E711F4801F04BF0143FA
:1043F0000020B4F1FD0C88BFBCF5E06F3FF6AFAE16
:10440000B5EB030C04BFB6EB020C5FEA500C50F1A5
:10441000000041EB045170BD0EF0004E4EEA113128
:1044200014EB5C04C2BFD4EB0C0541EA045170BD2F
:1044300041F480114FF0000E013C90E645EA060E73
:104440008DE60CEA135594EA0C0F08BF95EA0C0FA1
:104450003FF43BAF94EA0C0F0AD150EA01347FF4E9
:1044600034AF95EA0C0F7FF425AF104619462CE7C0
:1044700095EA0C0F06D152EA03353FF4FDAE104623
:10448000194622E750EA410618BF52EA43067FF474
:10449000C5AE50EA41047FF40DAF52EA43057FF404
:1044A000EBAE12E74A0011D212F5001211D20DD56F
:1044B0006FF47873B3EB62520ED44FEAC12343F02A
:1044C000004343EA505323FA02F070474FF00000D4
:1044D000704750EA013002D14FF0FF3070474FF083
:1044E00000007047220357006F006C006B00200033
:1044F0005500530042002000530070006500610029
:104500006B006500720000002603530054004D004C
:104510006900630072006F0065006C006500630055
:10452000740072006F006E00690063007300000089
:104530000403090409026D00020100C032090400ED
:104540000000010100000924010001270001010C05
:1045500024020101010001000000000924060201FB
:104560000101000009240303010300020009040102
:10457000000001020000090401010101020000071E
:104580002401010101000B2402010202100180BB81
:104590000009050101C0000100000725010000001D
:1045A00000000000120100020000004083043057A8
:1045B00000020102030100000305205F0001020365
:1045C000001D000000001F1F1F0000000000000071
:1045D0000000000C000E110000110E000000040E7F
:1045E000040003000404040001000000001F111F68
:1045F000081F0009130D11150A18041F1D15120FAD
:10460000151710131C1F151F1D151E000A00000B87
:1046100000040A000A0A0A000A0400000000000060
:104620000F140F1F150A0E110A1F110E1F15151F4B
:1046300014141D151E1F041F111F11111E101F041D
:104640001B1F01011F081F0F04070E110E1F141C52
:104650000C120F1F140B091512101F101F011F1E23
:10466000011E1F061F1B041B180718131519001F16
:1046700011000000111F00040804010101000C00DA
:104680000609071F050706090907051F0E15080477
:104690001F141D151E1F04070017000117001F021D
:1046A00005101F001F081F0F04070609060F0A0444
:1046B000040A0F0F0404091512040F05060107066A
:1046C00001060F020F0D020D0D020C090B0D041F48
:1046D00011001F00111F0400000000000000000175
:1046E00000000100000100000100000100000100C5
:1046F00000010000010000010000010000010000B5
:1047000001000001000001000001000001000001A3
:104710000000010000010000010000010000010094
:104720000001000001000001000001000001000084
:104730000100000100000100000100000100000173
:104740000000010000010000010000010000010064
:104750000001000001000001000001000001000054
:104760000100000100000100000100000100000143
:104770000000010000010000010000010000010034
:104780000001000001000001000001000001000024
:104790000100000100000100000100000100000014
:1047A00000080240000402400000024000000240F5
:1047B00000000240000002400000024000080240E9
:1047C00000080240000402400004024007000F00FD
:1047D00002000000010009000800090008000E00A6
:1047E0000D00000000080240000C024000040240DE
:1047F0000008024000000240000802400008024099
:104800000004024000040240000402400004024090
:104810000020040008000008008000040010800050
:104820004000200010000000D007E803F401000061
:1048300064009001FA000000000000000000000089
:104840000000000000000000000000000000000068
:10485000000000000101010101010101010101014C
:104860000102020202020202020303030303030322
:1048700004040404040505050506060606070707E3
:10488000070808080909090A0A0A0B0B0B0C0C0D8A
:104890000D0D0E0E0F0F1010111112121313141410
:1048A0001515161617181819191A1B1B1C1D1D1E75
:1048B0001F202021222323242526272728292A2BAD
:1048C0002C2D2E2F303132323334363738393A3BB3
:1048D0003C3D3E3F40424344454648494A4B4D4E8D
:1048E0004F515253555657595A5C5D5F606263652C
:1048F0006668696B6D6E7072737577787A7C7E7F8F
:1049000081838587898A8C8E90929496989A9C9EB2
:10491000A0A2A4A7A9ABADAFB1B4B6B8BABDBFC190
:10492000C4C6C8CBCDD0D2D5D7DADCDFE1E4E7E925
:10493000ECEFF1F4F7F9FCFF181716151413121128
:10494000100F05060708090A0B0C0D0E04030201DF
:1049500000191A1B1C1D27262524232221201F1E77
:0C49600028292A2B2C2D2E2F303100008E
:10496C001A03530054004D003300320000000000C5
:10497C00000000000000000000000000010000002A
:10498C004514000869140008E1130008E513000839
:10499C0019140008E9130008ED130008211500088C
:1049AC00311500084115000800000000400000000F
:1049BC00A445000812000000344500086D000000FA
:1049CC0030450008040000000845000826000000DF
:1049DC00E444000822000000000000201A0000003F
:1049EC00450A0008BD130008450A0008450A0008DE
:1049FC00450A0008450A0008450A0008450A00084F
:104A0C00D5130008020100000048E8010304060861
:104A1C000C10182030000000000000000000000006
:104A2C0001020304060708090100000067010000E9
:104A3C00FFFFFF00FF00FF0000FFFF00FFFF000073
:104A4C000000FF0000FF0000FF0000001800000045
:104A5C00F5320008450A0008450A0008450A000816
:104A6C00450A0008450A0008450A0008450A0008DE
:104A7C00450A0008450A0008450A0008450A0008CE
:084A8C00450A0008450A000874
:0400000508000000EF
:00000001FF
